{
  "_format": "hh-sol-artifact-1",
  "contractName": "TicketSystem",
  "sourceName": "contracts/Ticketing.sol",
  "abi": [
    {
      "inputs": [],
      "stateMutability": "nonpayable",
      "type": "constructor"
    },
    {
      "inputs": [
        {
          "internalType": "address",
          "name": "sender",
          "type": "address"
        },
        {
          "internalType": "uint256",
          "name": "tokenId",
          "type": "uint256"
        },
        {
          "internalType": "address",
          "name": "owner",
          "type": "address"
        }
      ],
      "name": "ERC721IncorrectOwner",
      "type": "error"
    },
    {
      "inputs": [
        {
          "internalType": "address",
          "name": "operator",
          "type": "address"
        },
        {
          "internalType": "uint256",
          "name": "tokenId",
          "type": "uint256"
        }
      ],
      "name": "ERC721InsufficientApproval",
      "type": "error"
    },
    {
      "inputs": [
        {
          "internalType": "address",
          "name": "approver",
          "type": "address"
        }
      ],
      "name": "ERC721InvalidApprover",
      "type": "error"
    },
    {
      "inputs": [
        {
          "internalType": "address",
          "name": "operator",
          "type": "address"
        }
      ],
      "name": "ERC721InvalidOperator",
      "type": "error"
    },
    {
      "inputs": [
        {
          "internalType": "address",
          "name": "owner",
          "type": "address"
        }
      ],
      "name": "ERC721InvalidOwner",
      "type": "error"
    },
    {
      "inputs": [
        {
          "internalType": "address",
          "name": "receiver",
          "type": "address"
        }
      ],
      "name": "ERC721InvalidReceiver",
      "type": "error"
    },
    {
      "inputs": [
        {
          "internalType": "address",
          "name": "sender",
          "type": "address"
        }
      ],
      "name": "ERC721InvalidSender",
      "type": "error"
    },
    {
      "inputs": [
        {
          "internalType": "uint256",
          "name": "tokenId",
          "type": "uint256"
        }
      ],
      "name": "ERC721NonexistentToken",
      "type": "error"
    },
    {
      "inputs": [
        {
          "internalType": "address",
          "name": "owner",
          "type": "address"
        }
      ],
      "name": "OwnableInvalidOwner",
      "type": "error"
    },
    {
      "inputs": [
        {
          "internalType": "address",
          "name": "account",
          "type": "address"
        }
      ],
      "name": "OwnableUnauthorizedAccount",
      "type": "error"
    },
    {
      "anonymous": false,
      "inputs": [
        {
          "indexed": true,
          "internalType": "address",
          "name": "owner",
          "type": "address"
        },
        {
          "indexed": true,
          "internalType": "address",
          "name": "approved",
          "type": "address"
        },
        {
          "indexed": true,
          "internalType": "uint256",
          "name": "tokenId",
          "type": "uint256"
        }
      ],
      "name": "Approval",
      "type": "event"
    },
    {
      "anonymous": false,
      "inputs": [
        {
          "indexed": true,
          "internalType": "address",
          "name": "owner",
          "type": "address"
        },
        {
          "indexed": true,
          "internalType": "address",
          "name": "operator",
          "type": "address"
        },
        {
          "indexed": false,
          "internalType": "bool",
          "name": "approved",
          "type": "bool"
        }
      ],
      "name": "ApprovalForAll",
      "type": "event"
    },
    {
      "anonymous": false,
      "inputs": [
        {
          "indexed": true,
          "internalType": "uint256",
          "name": "eventId",
          "type": "uint256"
        },
        {
          "indexed": false,
          "internalType": "string",
          "name": "name",
          "type": "string"
        },
        {
          "indexed": false,
          "internalType": "address",
          "name": "organizer",
          "type": "address"
        }
      ],
      "name": "EventCreated",
      "type": "event"
    },
    {
      "anonymous": false,
      "inputs": [
        {
          "indexed": true,
          "internalType": "address",
          "name": "previousOwner",
          "type": "address"
        },
        {
          "indexed": true,
          "internalType": "address",
          "name": "newOwner",
          "type": "address"
        }
      ],
      "name": "OwnershipTransferred",
      "type": "event"
    },
    {
      "anonymous": false,
      "inputs": [
        {
          "indexed": true,
          "internalType": "uint256",
          "name": "eventId",
          "type": "uint256"
        },
        {
          "indexed": true,
          "internalType": "uint256",
          "name": "tokenId",
          "type": "uint256"
        },
        {
          "indexed": false,
          "internalType": "address",
          "name": "buyer",
          "type": "address"
        }
      ],
      "name": "TicketMinted",
      "type": "event"
    },
    {
      "anonymous": false,
      "inputs": [
        {
          "indexed": true,
          "internalType": "uint256",
          "name": "tokenId",
          "type": "uint256"
        }
      ],
      "name": "TicketUsed",
      "type": "event"
    },
    {
      "anonymous": false,
      "inputs": [
        {
          "indexed": true,
          "internalType": "address",
          "name": "from",
          "type": "address"
        },
        {
          "indexed": true,
          "internalType": "address",
          "name": "to",
          "type": "address"
        },
        {
          "indexed": true,
          "internalType": "uint256",
          "name": "tokenId",
          "type": "uint256"
        }
      ],
      "name": "Transfer",
      "type": "event"
    },
    {
      "inputs": [
        {
          "internalType": "address",
          "name": "to",
          "type": "address"
        },
        {
          "internalType": "uint256",
          "name": "tokenId",
          "type": "uint256"
        }
      ],
      "name": "approve",
      "outputs": [],
      "stateMutability": "nonpayable",
      "type": "function"
    },
    {
      "inputs": [
        {
          "internalType": "address",
          "name": "owner",
          "type": "address"
        }
      ],
      "name": "balanceOf",
      "outputs": [
        {
          "internalType": "uint256",
          "name": "",
          "type": "uint256"
        }
      ],
      "stateMutability": "view",
      "type": "function"
    },
    {
      "inputs": [
        {
          "internalType": "uint256",
          "name": "_eventId",
          "type": "uint256"
        }
      ],
      "name": "buyTicket",
      "outputs": [],
      "stateMutability": "payable",
      "type": "function"
    },
    {
      "inputs": [
        {
          "internalType": "string",
          "name": "_name",
          "type": "string"
        },
        {
          "internalType": "uint256",
          "name": "_price",
          "type": "uint256"
        },
        {
          "internalType": "uint256",
          "name": "_totalTickets",
          "type": "uint256"
        },
        {
          "internalType": "string",
          "name": "_metadataURI",
          "type": "string"
        }
      ],
      "name": "createEvent",
      "outputs": [],
      "stateMutability": "nonpayable",
      "type": "function"
    },
    {
      "inputs": [
        {
          "internalType": "uint256",
          "name": "",
          "type": "uint256"
        }
      ],
      "name": "events",
      "outputs": [
        {
          "internalType": "uint256",
          "name": "id",
          "type": "uint256"
        },
        {
          "internalType": "string",
          "name": "name",
          "type": "string"
        },
        {
          "internalType": "uint256",
          "name": "price",
          "type": "uint256"
        },
        {
          "internalType": "uint256",
          "name": "totalTickets",
          "type": "uint256"
        },
        {
          "internalType": "uint256",
          "name": "sold",
          "type": "uint256"
        },
        {
          "internalType": "address payable",
          "name": "organizer",
          "type": "address"
        },
        {
          "internalType": "string",
          "name": "metadataURI",
          "type": "string"
        },
        {
          "internalType": "bool",
          "name": "exists",
          "type": "bool"
        }
      ],
      "stateMutability": "view",
      "type": "function"
    },
    {
      "inputs": [
        {
          "internalType": "uint256",
          "name": "tokenId",
          "type": "uint256"
        }
      ],
      "name": "getApproved",
      "outputs": [
        {
          "internalType": "address",
          "name": "",
          "type": "address"
        }
      ],
      "stateMutability": "view",
      "type": "function"
    },
    {
      "inputs": [
        {
          "internalType": "address",
          "name": "owner",
          "type": "address"
        },
        {
          "internalType": "address",
          "name": "operator",
          "type": "address"
        }
      ],
      "name": "isApprovedForAll",
      "outputs": [
        {
          "internalType": "bool",
          "name": "",
          "type": "bool"
        }
      ],
      "stateMutability": "view",
      "type": "function"
    },
    {
      "inputs": [],
      "name": "name",
      "outputs": [
        {
          "internalType": "string",
          "name": "",
          "type": "string"
        }
      ],
      "stateMutability": "view",
      "type": "function"
    },
    {
      "inputs": [],
      "name": "nextEventId",
      "outputs": [
        {
          "internalType": "uint256",
          "name": "",
          "type": "uint256"
        }
      ],
      "stateMutability": "view",
      "type": "function"
    },
    {
      "inputs": [],
      "name": "nextTicketId",
      "outputs": [
        {
          "internalType": "uint256",
          "name": "",
          "type": "uint256"
        }
      ],
      "stateMutability": "view",
      "type": "function"
    },
    {
      "inputs": [],
      "name": "owner",
      "outputs": [
        {
          "internalType": "address",
          "name": "",
          "type": "address"
        }
      ],
      "stateMutability": "view",
      "type": "function"
    },
    {
      "inputs": [
        {
          "internalType": "uint256",
          "name": "tokenId",
          "type": "uint256"
        }
      ],
      "name": "ownerOf",
      "outputs": [
        {
          "internalType": "address",
          "name": "",
          "type": "address"
        }
      ],
      "stateMutability": "view",
      "type": "function"
    },
    {
      "inputs": [],
      "name": "renounceOwnership",
      "outputs": [],
      "stateMutability": "nonpayable",
      "type": "function"
    },
    {
      "inputs": [
        {
          "internalType": "address",
          "name": "from",
          "type": "address"
        },
        {
          "internalType": "address",
          "name": "to",
          "type": "address"
        },
        {
          "internalType": "uint256",
          "name": "tokenId",
          "type": "uint256"
        }
      ],
      "name": "safeTransferFrom",
      "outputs": [],
      "stateMutability": "nonpayable",
      "type": "function"
    },
    {
      "inputs": [
        {
          "internalType": "address",
          "name": "from",
          "type": "address"
        },
        {
          "internalType": "address",
          "name": "to",
          "type": "address"
        },
        {
          "internalType": "uint256",
          "name": "tokenId",
          "type": "uint256"
        },
        {
          "internalType": "bytes",
          "name": "data",
          "type": "bytes"
        }
      ],
      "name": "safeTransferFrom",
      "outputs": [],
      "stateMutability": "nonpayable",
      "type": "function"
    },
    {
      "inputs": [
        {
          "internalType": "address",
          "name": "operator",
          "type": "address"
        },
        {
          "internalType": "bool",
          "name": "approved",
          "type": "bool"
        }
      ],
      "name": "setApprovalForAll",
      "outputs": [],
      "stateMutability": "nonpayable",
      "type": "function"
    },
    {
      "inputs": [
        {
          "internalType": "bytes4",
          "name": "interfaceId",
          "type": "bytes4"
        }
      ],
      "name": "supportsInterface",
      "outputs": [
        {
          "internalType": "bool",
          "name": "",
          "type": "bool"
        }
      ],
      "stateMutability": "view",
      "type": "function"
    },
    {
      "inputs": [],
      "name": "symbol",
      "outputs": [
        {
          "internalType": "string",
          "name": "",
          "type": "string"
        }
      ],
      "stateMutability": "view",
      "type": "function"
    },
    {
      "inputs": [
        {
          "internalType": "uint256",
          "name": "",
          "type": "uint256"
        }
      ],
      "name": "ticketToEvent",
      "outputs": [
        {
          "internalType": "uint256",
          "name": "",
          "type": "uint256"
        }
      ],
      "stateMutability": "view",
      "type": "function"
    },
    {
      "inputs": [
        {
          "internalType": "uint256",
          "name": "",
          "type": "uint256"
        }
      ],
      "name": "ticketUsed",
      "outputs": [
        {
          "internalType": "bool",
          "name": "",
          "type": "bool"
        }
      ],
      "stateMutability": "view",
      "type": "function"
    },
    {
      "inputs": [
        {
          "internalType": "uint256",
          "name": "tokenId",
          "type": "uint256"
        }
      ],
      "name": "tokenURI",
      "outputs": [
        {
          "internalType": "string",
          "name": "",
          "type": "string"
        }
      ],
      "stateMutability": "view",
      "type": "function"
    },
    {
      "inputs": [
        {
          "internalType": "address",
          "name": "from",
          "type": "address"
        },
        {
          "internalType": "address",
          "name": "to",
          "type": "address"
        },
        {
          "internalType": "uint256",
          "name": "tokenId",
          "type": "uint256"
        }
      ],
      "name": "transferFrom",
      "outputs": [],
      "stateMutability": "nonpayable",
      "type": "function"
    },
    {
      "inputs": [
        {
          "internalType": "address",
          "name": "newOwner",
          "type": "address"
        }
      ],
      "name": "transferOwnership",
      "outputs": [],
      "stateMutability": "nonpayable",
      "type": "function"
    },
    {
      "inputs": [
        {
          "internalType": "uint256",
          "name": "tokenId",
          "type": "uint256"
        }
      ],
      "name": "useTicket",
      "outputs": [],
      "stateMutability": "nonpayable",
      "type": "function"
    },
    {
      "inputs": [
        {
          "internalType": "uint256",
          "name": "tokenId",
          "type": "uint256"
        }
      ],
      "name": "verifyTicket",
      "outputs": [
        {
          "internalType": "bool",
          "name": "",
          "type": "bool"
        }
      ],
      "stateMutability": "view",
      "type": "function"
    },
    {
      "stateMutability": "payable",
      "type": "receive"
    }
  ],
  "bytecode": "0x6080604052600160075560016008553480156200001b57600080fd5b50336040518060400160405280600b81526020017f4576656e745469636b65740000000000000000000000000000000000000000008152506040518060400160405280600481526020017f455449580000000000000000000000000000000000000000000000000000000081525081600090816200009a91906200047c565b508060019081620000ac91906200047c565b505050600073ffffffffffffffffffffffffffffffffffffffff168173ffffffffffffffffffffffffffffffffffffffff1603620001245760006040517f1e4fbdf70000000000000000000000000000000000000000000000000000000081526004016200011b9190620005a8565b60405180910390fd5b62000135816200013c60201b60201c565b50620005c5565b6000600660009054906101000a900473ffffffffffffffffffffffffffffffffffffffff16905081600660006101000a81548173ffffffffffffffffffffffffffffffffffffffff021916908373ffffffffffffffffffffffffffffffffffffffff1602179055508173ffffffffffffffffffffffffffffffffffffffff168173ffffffffffffffffffffffffffffffffffffffff167f8be0079c531659141344cd1fd0a4f28419497f9722a3daafe3b4186f6b6457e060405160405180910390a35050565b600081519050919050565b7f4e487b7100000000000000000000000000000000000000000000000000000000600052604160045260246000fd5b7f4e487b7100000000000000000000000000000000000000000000000000000000600052602260045260246000fd5b600060028204905060018216806200028457607f821691505b6020821081036200029a57620002996200023c565b5b50919050565b60008190508160005260206000209050919050565b60006020601f8301049050919050565b600082821b905092915050565b600060088302620003047fffffffffffffffffffffffffffffffffffffffffffffffffffffffffffffffff82620002c5565b620003108683620002c5565b95508019841693508086168417925050509392505050565b6000819050919050565b6000819050919050565b60006200035d62000357620003518462000328565b62000332565b62000328565b9050919050565b6000819050919050565b62000379836200033c565b62000391620003888262000364565b848454620002d2565b825550505050565b600090565b620003a862000399565b620003b58184846200036e565b505050565b5b81811015620003dd57620003d16000826200039e565b600181019050620003bb565b5050565b601f8211156200042c57620003f681620002a0565b6200040184620002b5565b8101602085101562000411578190505b620004296200042085620002b5565b830182620003ba565b50505b505050565b600082821c905092915050565b6000620004516000198460080262000431565b1980831691505092915050565b60006200046c83836200043e565b9150826002028217905092915050565b620004878262000202565b67ffffffffffffffff811115620004a357620004a26200020d565b5b620004af82546200026b565b620004bc828285620003e1565b600060209050601f831160018114620004f45760008415620004df578287015190505b620004eb85826200045e565b8655506200055b565b601f1984166200050486620002a0565b60005b828110156200052e5784890151825560018201915060208501945060208101905062000507565b868310156200054e57848901516200054a601f8916826200043e565b8355505b6001600288020188555050505b505050505050565b600073ffffffffffffffffffffffffffffffffffffffff82169050919050565b6000620005908262000563565b9050919050565b620005a28162000583565b82525050565b6000602082019050620005bf600083018462000597565b92915050565b61354d80620005d56000396000f3fe60806040526004361061016a5760003560e01c806367dd74ca116100d1578063a22cb4651161008a578063e985e9c511610064578063e985e9c51461059e578063f2fde38b146105db578063f3ef0d8814610604578063f6ac04da1461062d576101aa565b8063a22cb4651461050f578063b88d4fde14610538578063c87b56dd14610561576101aa565b806367dd74ca1461041e57806370a082311461043a578063715018a6146104775780638da5cb5b1461048e57806395d89b41146104b95780639f9d903a146104e4576101aa565b8063266064481161012357806326606448146102ea57806342842e0e14610313578063543cb81f1461033c5780636031a52f146103795780636352211e146103a4578063642b5f9b146103e1576101aa565b806301ffc9a7146101af57806306fdde03146101ec578063081812fc14610217578063095ea7b3146102545780630b7914301461027d57806323b872dd146102c1576101aa565b366101aa576040517f08c379a00000000000000000000000000000000000000000000000000000000081526004016101a190612389565b60405180910390fd5b600080fd5b3480156101bb57600080fd5b506101d660048036038101906101d19190612415565b61066a565b6040516101e3919061245d565b60405180910390f35b3480156101f857600080fd5b5061020161074c565b60405161020e91906124f7565b60405180910390f35b34801561022357600080fd5b5061023e6004803603810190610239919061254f565b6107de565b60405161024b91906125bd565b60405180910390f35b34801561026057600080fd5b5061027b60048036038101906102769190612604565b6107fa565b005b34801561028957600080fd5b506102a4600480360381019061029f919061254f565b610810565b6040516102b8989796959493929190612674565b60405180910390f35b3480156102cd57600080fd5b506102e860048036038101906102e39190612700565b610995565b005b3480156102f657600080fd5b50610311600480360381019061030c919061254f565b610a97565b005b34801561031f57600080fd5b5061033a60048036038101906103359190612700565b610c88565b005b34801561034857600080fd5b50610363600480360381019061035e919061254f565b610ca8565b604051610370919061245d565b60405180910390f35b34801561038557600080fd5b5061038e610d13565b60405161039b9190612753565b60405180910390f35b3480156103b057600080fd5b506103cb60048036038101906103c6919061254f565b610d19565b6040516103d891906125bd565b60405180910390f35b3480156103ed57600080fd5b506104086004803603810190610403919061254f565b610d2b565b604051610415919061245d565b60405180910390f35b6104386004803603810190610433919061254f565b610d4b565b005b34801561044657600080fd5b50610461600480360381019061045c919061276e565b610fa9565b60405161046e9190612753565b60405180910390f35b34801561048357600080fd5b5061048c611063565b005b34801561049a57600080fd5b506104a3611077565b6040516104b091906125bd565b60405180910390f35b3480156104c557600080fd5b506104ce6110a1565b6040516104db91906124f7565b60405180910390f35b3480156104f057600080fd5b506104f9611133565b6040516105069190612753565b60405180910390f35b34801561051b57600080fd5b50610536600480360381019061053191906127c7565b611139565b005b34801561054457600080fd5b5061055f600480360381019061055a919061293c565b61114f565b005b34801561056d57600080fd5b506105886004803603810190610583919061254f565b611174565b60405161059591906124f7565b60405180910390f35b3480156105aa57600080fd5b506105c560048036038101906105c091906129bf565b6112a6565b6040516105d2919061245d565b60405180910390f35b3480156105e757600080fd5b5061060260048036038101906105fd919061276e565b61133a565b005b34801561061057600080fd5b5061062b60048036038101906106269190612aa0565b6113c0565b005b34801561063957600080fd5b50610654600480360381019061064f919061254f565b6115c9565b6040516106619190612753565b60405180910390f35b60007f80ac58cd000000000000000000000000000000000000000000000000000000007bffffffffffffffffffffffffffffffffffffffffffffffffffffffff1916827bffffffffffffffffffffffffffffffffffffffffffffffffffffffff1916148061073557507f5b5e139f000000000000000000000000000000000000000000000000000000007bffffffffffffffffffffffffffffffffffffffffffffffffffffffff1916827bffffffffffffffffffffffffffffffffffffffffffffffffffffffff1916145b806107455750610744826115e1565b5b9050919050565b60606000805461075b90612b6e565b80601f016020809104026020016040519081016040528092919081815260200182805461078790612b6e565b80156107d45780601f106107a9576101008083540402835291602001916107d4565b820191906000526020600020905b8154815290600101906020018083116107b757829003601f168201915b5050505050905090565b60006107e98261164b565b506107f3826116d3565b9050919050565b61080c8282610807611710565b611718565b5050565b600960205280600052604060002060009150905080600001549080600101805461083990612b6e565b80601f016020809104026020016040519081016040528092919081815260200182805461086590612b6e565b80156108b25780601f10610887576101008083540402835291602001916108b2565b820191906000526020600020905b81548152906001019060200180831161089557829003601f168201915b5050505050908060020154908060030154908060040154908060050160009054906101000a900473ffffffffffffffffffffffffffffffffffffffff16908060060180546108ff90612b6e565b80601f016020809104026020016040519081016040528092919081815260200182805461092b90612b6e565b80156109785780601f1061094d57610100808354040283529160200191610978565b820191906000526020600020905b81548152906001019060200180831161095b57829003601f168201915b5050505050908060070160009054906101000a900460ff16905088565b600073ffffffffffffffffffffffffffffffffffffffff168273ffffffffffffffffffffffffffffffffffffffff1603610a075760006040517f64a0ae920000000000000000000000000000000000000000000000000000000081526004016109fe91906125bd565b60405180910390fd5b6000610a1b8383610a16611710565b61172a565b90508373ffffffffffffffffffffffffffffffffffffffff168173ffffffffffffffffffffffffffffffffffffffff1614610a91578382826040517f64283d7b000000000000000000000000000000000000000000000000000000008152600401610a8893929190612b9f565b60405180910390fd5b50505050565b600073ffffffffffffffffffffffffffffffffffffffff16610ab8826117e3565b73ffffffffffffffffffffffffffffffffffffffff1603610b0e576040517f08c379a0000000000000000000000000000000000000000000000000000000008152600401610b0590612c22565b60405180910390fd5b600b600082815260200190815260200160002060009054906101000a900460ff1615610b6f576040517f08c379a0000000000000000000000000000000000000000000000000000000008152600401610b6690612c8e565b60405180910390fd5b6000600a60008381526020019081526020016000205490506009600082815260200190815260200160002060050160009054906101000a900473ffffffffffffffffffffffffffffffffffffffff1673ffffffffffffffffffffffffffffffffffffffff163373ffffffffffffffffffffffffffffffffffffffff1614610c2b576040517f08c379a0000000000000000000000000000000000000000000000000000000008152600401610c2290612cfa565b60405180910390fd5b6001600b600084815260200190815260200160002060006101000a81548160ff021916908315150217905550817f1f5d53e38fbc5a40092861e993062e74fb6dc7acef58356c7b55aa1afd8b350160405160405180910390a25050565b610ca38383836040518060200160405280600081525061114f565b505050565b60008073ffffffffffffffffffffffffffffffffffffffff16610cca836117e3565b73ffffffffffffffffffffffffffffffffffffffff1614158015610d0c5750600b600083815260200190815260200160002060009054906101000a900460ff16155b9050919050565b60085481565b6000610d248261164b565b9050919050565b600b6020528060005260406000206000915054906101000a900460ff1681565b60006009600083815260200190815260200160002090508060070160009054906101000a900460ff16610db3576040517f08c379a0000000000000000000000000000000000000000000000000000000008152600401610daa90612d66565b60405180910390fd5b8060030154816004015410610dfd576040517f08c379a0000000000000000000000000000000000000000000000000000000008152600401610df490612dd2565b60405180910390fd5b80600201543414610e43576040517f08c379a0000000000000000000000000000000000000000000000000000000008152600401610e3a90612e3e565b60405180910390fd5b600060086000815480929190610e5890612e8d565b919050559050610e683382611820565b82600a600083815260200190815260200160002081905550816004016000815480929190610e9590612e8d565b919050555080837f085ec0eff4bf526b0dd054adffcd8bd8da42126a1133ce302042973f32029fb033604051610ecb91906125bd565b60405180910390a360008260050160009054906101000a900473ffffffffffffffffffffffffffffffffffffffff1673ffffffffffffffffffffffffffffffffffffffff1634604051610f1d90612f06565b60006040518083038185875af1925050503d8060008114610f5a576040519150601f19603f3d011682016040523d82523d6000602084013e610f5f565b606091505b5050905080610fa3576040517f08c379a0000000000000000000000000000000000000000000000000000000008152600401610f9a90612f67565b60405180910390fd5b50505050565b60008073ffffffffffffffffffffffffffffffffffffffff168273ffffffffffffffffffffffffffffffffffffffff160361101c5760006040517f89c62b6400000000000000000000000000000000000000000000000000000000815260040161101391906125bd565b60405180910390fd5b600360008373ffffffffffffffffffffffffffffffffffffffff1673ffffffffffffffffffffffffffffffffffffffff168152602001908152602001600020549050919050565b61106b61183e565b61107560006118c5565b565b6000600660009054906101000a900473ffffffffffffffffffffffffffffffffffffffff16905090565b6060600180546110b090612b6e565b80601f01602080910402602001604051908101604052809291908181526020018280546110dc90612b6e565b80156111295780601f106110fe57610100808354040283529160200191611129565b820191906000526020600020905b81548152906001019060200180831161110c57829003601f168201915b5050505050905090565b60075481565b61114b611144611710565b838361198b565b5050565b61115a848484610995565b61116e611165611710565b85858585611afa565b50505050565b6060600073ffffffffffffffffffffffffffffffffffffffff16611197836117e3565b73ffffffffffffffffffffffffffffffffffffffff16036111ed576040517f08c379a00000000000000000000000000000000000000000000000000000000081526004016111e490612fd3565b60405180910390fd5b60096000600a6000858152602001908152602001600020548152602001908152602001600020600601805461122190612b6e565b80601f016020809104026020016040519081016040528092919081815260200182805461124d90612b6e565b801561129a5780601f1061126f5761010080835404028352916020019161129a565b820191906000526020600020905b81548152906001019060200180831161127d57829003601f168201915b50505050509050919050565b6000600560008473ffffffffffffffffffffffffffffffffffffffff1673ffffffffffffffffffffffffffffffffffffffff16815260200190815260200160002060008373ffffffffffffffffffffffffffffffffffffffff1673ffffffffffffffffffffffffffffffffffffffff16815260200190815260200160002060009054906101000a900460ff16905092915050565b61134261183e565b600073ffffffffffffffffffffffffffffffffffffffff168173ffffffffffffffffffffffffffffffffffffffff16036113b45760006040517f1e4fbdf70000000000000000000000000000000000000000000000000000000081526004016113ab91906125bd565b60405180910390fd5b6113bd816118c5565b50565b60008211611403576040517f08c379a00000000000000000000000000000000000000000000000000000000081526004016113fa9061303f565b60405180910390fd5b60008311611446576040517f08c379a000000000000000000000000000000000000000000000000000000000815260040161143d906130ab565b60405180910390fd5b6040518061010001604052806007548152602001858152602001848152602001838152602001600081526020013373ffffffffffffffffffffffffffffffffffffffff168152602001828152602001600115158152506009600060075481526020019081526020016000206000820151816000015560208201518160010190816114d09190613277565b5060408201518160020155606082015181600301556080820151816004015560a08201518160050160006101000a81548173ffffffffffffffffffffffffffffffffffffffff021916908373ffffffffffffffffffffffffffffffffffffffff16021790555060c082015181600601908161154b9190613277565b5060e08201518160070160006101000a81548160ff0219169083151502179055509050506007547f40fb05b814a900c99fa0a76d919dfdeaf3389540e4ca70f97ba40ca9a38f379785336040516115a3929190613349565b60405180910390a2600760008154809291906115be90612e8d565b919050555050505050565b600a6020528060005260406000206000915090505481565b60007f01ffc9a7000000000000000000000000000000000000000000000000000000007bffffffffffffffffffffffffffffffffffffffffffffffffffffffff1916827bffffffffffffffffffffffffffffffffffffffffffffffffffffffff1916149050919050565b600080611657836117e3565b9050600073ffffffffffffffffffffffffffffffffffffffff168173ffffffffffffffffffffffffffffffffffffffff16036116ca57826040517f7e2732890000000000000000000000000000000000000000000000000000000081526004016116c19190612753565b60405180910390fd5b80915050919050565b60006004600083815260200190815260200160002060009054906101000a900473ffffffffffffffffffffffffffffffffffffffff169050919050565b600033905090565b6117258383836001611cab565b505050565b600080611736846117e3565b9050600073ffffffffffffffffffffffffffffffffffffffff168173ffffffffffffffffffffffffffffffffffffffff16146117ce57600b600085815260200190815260200160002060009054906101000a900460ff16156117cd576040517f08c379a00000000000000000000000000000000000000000000000000000000081526004016117c4906133eb565b60405180910390fd5b5b6117d9858585611e70565b9150509392505050565b60006002600083815260200190815260200160002060009054906101000a900473ffffffffffffffffffffffffffffffffffffffff169050919050565b61183a82826040518060200160405280600081525061208a565b5050565b611846611710565b73ffffffffffffffffffffffffffffffffffffffff16611864611077565b73ffffffffffffffffffffffffffffffffffffffff16146118c357611887611710565b6040517f118cdaa70000000000000000000000000000000000000000000000000000000081526004016118ba91906125bd565b60405180910390fd5b565b6000600660009054906101000a900473ffffffffffffffffffffffffffffffffffffffff16905081600660006101000a81548173ffffffffffffffffffffffffffffffffffffffff021916908373ffffffffffffffffffffffffffffffffffffffff1602179055508173ffffffffffffffffffffffffffffffffffffffff168173ffffffffffffffffffffffffffffffffffffffff167f8be0079c531659141344cd1fd0a4f28419497f9722a3daafe3b4186f6b6457e060405160405180910390a35050565b600073ffffffffffffffffffffffffffffffffffffffff168273ffffffffffffffffffffffffffffffffffffffff16036119fc57816040517f5b08ba180000000000000000000000000000000000000000000000000000000081526004016119f391906125bd565b60405180910390fd5b80600560008573ffffffffffffffffffffffffffffffffffffffff1673ffffffffffffffffffffffffffffffffffffffff16815260200190815260200160002060008473ffffffffffffffffffffffffffffffffffffffff1673ffffffffffffffffffffffffffffffffffffffff16815260200190815260200160002060006101000a81548160ff0219169083151502179055508173ffffffffffffffffffffffffffffffffffffffff168373ffffffffffffffffffffffffffffffffffffffff167f17307eab39ab6107e8899845ad3d59bd9653f200f220920489ca2b5937696c3183604051611aed919061245d565b60405180910390a3505050565b60008373ffffffffffffffffffffffffffffffffffffffff163b1115611ca4578273ffffffffffffffffffffffffffffffffffffffff1663150b7a02868685856040518563ffffffff1660e01b8152600401611b599493929190613460565b6020604051808303816000875af1925050508015611b9557506040513d601f19601f82011682018060405250810190611b9291906134c1565b60015b611c19573d8060008114611bc5576040519150601f19603f3d011682016040523d82523d6000602084013e611bca565b606091505b506000815103611c1157836040517f64a0ae92000000000000000000000000000000000000000000000000000000008152600401611c0891906125bd565b60405180910390fd5b805160208201fd5b63150b7a0260e01b7bffffffffffffffffffffffffffffffffffffffffffffffffffffffff1916817bffffffffffffffffffffffffffffffffffffffffffffffffffffffff191614611ca257836040517f64a0ae92000000000000000000000000000000000000000000000000000000008152600401611c9991906125bd565b60405180910390fd5b505b5050505050565b8080611ce45750600073ffffffffffffffffffffffffffffffffffffffff168273ffffffffffffffffffffffffffffffffffffffff1614155b15611e18576000611cf48461164b565b9050600073ffffffffffffffffffffffffffffffffffffffff168373ffffffffffffffffffffffffffffffffffffffff1614158015611d5f57508273ffffffffffffffffffffffffffffffffffffffff168173ffffffffffffffffffffffffffffffffffffffff1614155b8015611d725750611d7081846112a6565b155b15611db457826040517fa9fbf51f000000000000000000000000000000000000000000000000000000008152600401611dab91906125bd565b60405180910390fd5b8115611e1657838573ffffffffffffffffffffffffffffffffffffffff168273ffffffffffffffffffffffffffffffffffffffff167f8c5be1e5ebec7d5bd14f71427d1e84f3dd0314c0f7b2291e5b200ac8c7c3b92560405160405180910390a45b505b836004600085815260200190815260200160002060006101000a81548173ffffffffffffffffffffffffffffffffffffffff021916908373ffffffffffffffffffffffffffffffffffffffff16021790555050505050565b600080611e7c846117e3565b9050600073ffffffffffffffffffffffffffffffffffffffff168373ffffffffffffffffffffffffffffffffffffffff1614611ebe57611ebd8184866120ae565b5b600073ffffffffffffffffffffffffffffffffffffffff168173ffffffffffffffffffffffffffffffffffffffff1614611f4f57611f00600085600080611cab565b6001600360008373ffffffffffffffffffffffffffffffffffffffff1673ffffffffffffffffffffffffffffffffffffffff168152602001908152602001600020600082825403925050819055505b600073ffffffffffffffffffffffffffffffffffffffff168573ffffffffffffffffffffffffffffffffffffffff1614611fd2576001600360008773ffffffffffffffffffffffffffffffffffffffff1673ffffffffffffffffffffffffffffffffffffffff168152602001908152602001600020600082825401925050819055505b846002600086815260200190815260200160002060006101000a81548173ffffffffffffffffffffffffffffffffffffffff021916908373ffffffffffffffffffffffffffffffffffffffff160217905550838573ffffffffffffffffffffffffffffffffffffffff168273ffffffffffffffffffffffffffffffffffffffff167fddf252ad1be2c89b69c2b068fc378daa952ba7f163c4a11628f55a4df523b3ef60405160405180910390a4809150509392505050565b6120948383612172565b6120a961209f611710565b6000858585611afa565b505050565b6120b983838361226b565b61216d57600073ffffffffffffffffffffffffffffffffffffffff168373ffffffffffffffffffffffffffffffffffffffff160361212e57806040517f7e2732890000000000000000000000000000000000000000000000000000000081526004016121259190612753565b60405180910390fd5b81816040517f177e802f0000000000000000000000000000000000000000000000000000000081526004016121649291906134ee565b60405180910390fd5b505050565b600073ffffffffffffffffffffffffffffffffffffffff168273ffffffffffffffffffffffffffffffffffffffff16036121e45760006040517f64a0ae920000000000000000000000000000000000000000000000000000000081526004016121db91906125bd565b60405180910390fd5b60006121f28383600061172a565b9050600073ffffffffffffffffffffffffffffffffffffffff168173ffffffffffffffffffffffffffffffffffffffff16146122665760006040517f73c6ac6e00000000000000000000000000000000000000000000000000000000815260040161225d91906125bd565b60405180910390fd5b505050565b60008073ffffffffffffffffffffffffffffffffffffffff168373ffffffffffffffffffffffffffffffffffffffff161415801561232357508273ffffffffffffffffffffffffffffffffffffffff168473ffffffffffffffffffffffffffffffffffffffff1614806122e457506122e384846112a6565b5b8061232257508273ffffffffffffffffffffffffffffffffffffffff1661230a836116d3565b73ffffffffffffffffffffffffffffffffffffffff16145b5b90509392505050565b600082825260208201905092915050565b7f44697265637420455448206e6f74206163636570746564000000000000000000600082015250565b600061237360178361232c565b915061237e8261233d565b602082019050919050565b600060208201905081810360008301526123a281612366565b9050919050565b6000604051905090565b600080fd5b600080fd5b60007fffffffff0000000000000000000000000000000000000000000000000000000082169050919050565b6123f2816123bd565b81146123fd57600080fd5b50565b60008135905061240f816123e9565b92915050565b60006020828403121561242b5761242a6123b3565b5b600061243984828501612400565b91505092915050565b60008115159050919050565b61245781612442565b82525050565b6000602082019050612472600083018461244e565b92915050565b600081519050919050565b60005b838110156124a1578082015181840152602081019050612486565b60008484015250505050565b6000601f19601f8301169050919050565b60006124c982612478565b6124d3818561232c565b93506124e3818560208601612483565b6124ec816124ad565b840191505092915050565b6000602082019050818103600083015261251181846124be565b905092915050565b6000819050919050565b61252c81612519565b811461253757600080fd5b50565b60008135905061254981612523565b92915050565b600060208284031215612565576125646123b3565b5b60006125738482850161253a565b91505092915050565b600073ffffffffffffffffffffffffffffffffffffffff82169050919050565b60006125a78261257c565b9050919050565b6125b78161259c565b82525050565b60006020820190506125d260008301846125ae565b92915050565b6125e18161259c565b81146125ec57600080fd5b50565b6000813590506125fe816125d8565b92915050565b6000806040838503121561261b5761261a6123b3565b5b6000612629858286016125ef565b925050602061263a8582860161253a565b9150509250929050565b61264d81612519565b82525050565b600061265e8261257c565b9050919050565b61266e81612653565b82525050565b60006101008201905061268a600083018b612644565b818103602083015261269c818a6124be565b90506126ab6040830189612644565b6126b86060830188612644565b6126c56080830187612644565b6126d260a0830186612665565b81810360c08301526126e481856124be565b90506126f360e083018461244e565b9998505050505050505050565b600080600060608486031215612719576127186123b3565b5b6000612727868287016125ef565b9350506020612738868287016125ef565b92505060406127498682870161253a565b9150509250925092565b60006020820190506127686000830184612644565b92915050565b600060208284031215612784576127836123b3565b5b6000612792848285016125ef565b91505092915050565b6127a481612442565b81146127af57600080fd5b50565b6000813590506127c18161279b565b92915050565b600080604083850312156127de576127dd6123b3565b5b60006127ec858286016125ef565b92505060206127fd858286016127b2565b9150509250929050565b600080fd5b600080fd5b7f4e487b7100000000000000000000000000000000000000000000000000000000600052604160045260246000fd5b612849826124ad565b810181811067ffffffffffffffff8211171561286857612867612811565b5b80604052505050565b600061287b6123a9565b90506128878282612840565b919050565b600067ffffffffffffffff8211156128a7576128a6612811565b5b6128b0826124ad565b9050602081019050919050565b82818337600083830152505050565b60006128df6128da8461288c565b612871565b9050828152602081018484840111156128fb576128fa61280c565b5b6129068482856128bd565b509392505050565b600082601f83011261292357612922612807565b5b81356129338482602086016128cc565b91505092915050565b60008060008060808587031215612956576129556123b3565b5b6000612964878288016125ef565b9450506020612975878288016125ef565b93505060406129868782880161253a565b925050606085013567ffffffffffffffff8111156129a7576129a66123b8565b5b6129b38782880161290e565b91505092959194509250565b600080604083850312156129d6576129d56123b3565b5b60006129e4858286016125ef565b92505060206129f5858286016125ef565b9150509250929050565b600067ffffffffffffffff821115612a1a57612a19612811565b5b612a23826124ad565b9050602081019050919050565b6000612a43612a3e846129ff565b612871565b905082815260208101848484011115612a5f57612a5e61280c565b5b612a6a8482856128bd565b509392505050565b600082601f830112612a8757612a86612807565b5b8135612a97848260208601612a30565b91505092915050565b60008060008060808587031215612aba57612ab96123b3565b5b600085013567ffffffffffffffff811115612ad857612ad76123b8565b5b612ae487828801612a72565b9450506020612af58782880161253a565b9350506040612b068782880161253a565b925050606085013567ffffffffffffffff811115612b2757612b266123b8565b5b612b3387828801612a72565b91505092959194509250565b7f4e487b7100000000000000000000000000000000000000000000000000000000600052602260045260246000fd5b60006002820490506001821680612b8657607f821691505b602082108103612b9957612b98612b3f565b5b50919050565b6000606082019050612bb460008301866125ae565b612bc16020830185612644565b612bce60408301846125ae565b949350505050565b7f496e76616c6964207469636b6574000000000000000000000000000000000000600082015250565b6000612c0c600e8361232c565b9150612c1782612bd6565b602082019050919050565b60006020820190508181036000830152612c3b81612bff565b9050919050565b7f5469636b657420616c7265616479207573656400000000000000000000000000600082015250565b6000612c7860138361232c565b9150612c8382612c42565b602082019050919050565b60006020820190508181036000830152612ca781612c6b565b9050919050565b7f4f6e6c79206f7267616e697a6572000000000000000000000000000000000000600082015250565b6000612ce4600e8361232c565b9150612cef82612cae565b602082019050919050565b60006020820190508181036000830152612d1381612cd7565b9050919050565b7f4576656e7420646f6573206e6f74206578697374000000000000000000000000600082015250565b6000612d5060148361232c565b9150612d5b82612d1a565b602082019050919050565b60006020820190508181036000830152612d7f81612d43565b9050919050565b7f5469636b65747320736f6c64206f757400000000000000000000000000000000600082015250565b6000612dbc60108361232c565b9150612dc782612d86565b602082019050919050565b60006020820190508181036000830152612deb81612daf565b9050919050565b7f496e636f72726563742045544800000000000000000000000000000000000000600082015250565b6000612e28600d8361232c565b9150612e3382612df2565b602082019050919050565b60006020820190508181036000830152612e5781612e1b565b9050919050565b7f4e487b7100000000000000000000000000000000000000000000000000000000600052601160045260246000fd5b6000612e9882612519565b91507fffffffffffffffffffffffffffffffffffffffffffffffffffffffffffffffff8203612eca57612ec9612e5e565b5b600182019050919050565b600081905092915050565b50565b6000612ef0600083612ed5565b9150612efb82612ee0565b600082019050919050565b6000612f1182612ee3565b9150819050919050565b7f5061796d656e74206661696c6564000000000000000000000000000000000000600082015250565b6000612f51600e8361232c565b9150612f5c82612f1b565b602082019050919050565b60006020820190508181036000830152612f8081612f44565b9050919050565b7f546f6b656e20646f6573206e6f74206578697374000000000000000000000000600082015250565b6000612fbd60148361232c565b9150612fc882612f87565b602082019050919050565b60006020820190508181036000830152612fec81612fb0565b9050919050565b7f496e76616c6964207469636b657420636f756e74000000000000000000000000600082015250565b600061302960148361232c565b915061303482612ff3565b602082019050919050565b600060208201905081810360008301526130588161301c565b9050919050565b7f5072696365206d757374206265203e2030000000000000000000000000000000600082015250565b600061309560118361232c565b91506130a08261305f565b602082019050919050565b600060208201905081810360008301526130c481613088565b9050919050565b60008190508160005260206000209050919050565b60006020601f8301049050919050565b600082821b905092915050565b60006008830261312d7fffffffffffffffffffffffffffffffffffffffffffffffffffffffffffffffff826130f0565b61313786836130f0565b95508019841693508086168417925050509392505050565b6000819050919050565b600061317461316f61316a84612519565b61314f565b612519565b9050919050565b6000819050919050565b61318e83613159565b6131a261319a8261317b565b8484546130fd565b825550505050565b600090565b6131b76131aa565b6131c2818484613185565b505050565b5b818110156131e6576131db6000826131af565b6001810190506131c8565b5050565b601f82111561322b576131fc816130cb565b613205846130e0565b81016020851015613214578190505b613228613220856130e0565b8301826131c7565b50505b505050565b600082821c905092915050565b600061324e60001984600802613230565b1980831691505092915050565b6000613267838361323d565b9150826002028217905092915050565b61328082612478565b67ffffffffffffffff81111561329957613298612811565b5b6132a38254612b6e565b6132ae8282856131ea565b600060209050601f8311600181146132e157600084156132cf578287015190505b6132d9858261325b565b865550613341565b601f1984166132ef866130cb565b60005b82811015613317578489015182556001820191506020850194506020810190506132f2565b868310156133345784890151613330601f89168261323d565b8355505b6001600288020188555050505b505050505050565b6000604082019050818103600083015261336381856124be565b905061337260208301846125ae565b9392505050565b7f55736564207469636b65742063616e6e6f74206265207472616e73666572726560008201527f6400000000000000000000000000000000000000000000000000000000000000602082015250565b60006133d560218361232c565b91506133e082613379565b604082019050919050565b60006020820190508181036000830152613404816133c8565b9050919050565b600081519050919050565b600082825260208201905092915050565b60006134328261340b565b61343c8185613416565b935061344c818560208601612483565b613455816124ad565b840191505092915050565b600060808201905061347560008301876125ae565b61348260208301866125ae565b61348f6040830185612644565b81810360608301526134a18184613427565b905095945050505050565b6000815190506134bb816123e9565b92915050565b6000602082840312156134d7576134d66123b3565b5b60006134e5848285016134ac565b91505092915050565b600060408201905061350360008301856125ae565b6135106020830184612644565b939250505056fea264697066735822122016b0065397a88f91ae7b0e3e633137286c4f4356579c9b914a981d050731746464736f6c63430008140033",
  "linkReferences": {},
  "deployedLinkReferences": {}
}